{
  "contractName": "MMEToken",
  "abi": [
    {
      "inputs": [],
      "payable": false,
      "stateMutability": "nonpayable",
      "type": "constructor",
      "signature": "constructor"
    },
    {
      "constant": true,
      "inputs": [
        {
          "name": "who",
          "type": "address"
        }
      ],
      "name": "hasBill",
      "outputs": [
        {
          "name": "",
          "type": "bool"
        }
      ],
      "payable": false,
      "stateMutability": "view",
      "type": "function",
      "signature": "0x578b15ec"
    }
  ],
  "bytecode": "0x608060405234801561001057600080fd5b5060df8061001f6000396000f3fe608060405260043610603f576000357c0100000000000000000000000000000000000000000000000000000000900463ffffffff168063578b15ec146044575b600080fd5b348015604f57600080fd5b50608f60048036036020811015606457600080fd5b81019080803573ffffffffffffffffffffffffffffffffffffffff16906020019092919050505060a9565b604051808215151515815260200191505060405180910390f35b600080905091905056fea165627a7a72305820572e1bf8d58d128d304da7544a59c81b5550041cb9c53fec202223783a1dfee90029",
  "source": "pragma solidity >=0.4.21 <0.6.0;\n\ncontract MMEToken {\n  constructor() public {}\n\n  function hasBill(address who) public view returns (bool) {\n    return false;\n  }\n}\n",
  "sourcePath": "/home/matthias/Desktop/truffle_test/contracts/MMEToken.sol",
  "compiler": {
    "name": "solc",
    "version": "0.5.0+commit.1d4f565a.Emscripten.clang"
  },
  "schemaVersion": "3.0.1",
  "updatedAt": "2019-02-13T21:17:21.447Z",
  "devdoc": {
    "methods": {}
  },
  "userdoc": {
    "methods": {}
  }
}