{
  "contractName": "Bill",
  "abi": [
    {
      "constant": true,
      "inputs": [],
      "name": "_owner",
      "outputs": [
        {
          "name": "",
          "type": "address"
        }
      ],
      "payable": false,
      "stateMutability": "view",
      "type": "function",
      "signature": "0xb2bdfa7b"
    },
    {
      "inputs": [],
      "payable": false,
      "stateMutability": "nonpayable",
      "type": "constructor",
      "signature": "constructor"
    },
    {
      "anonymous": false,
      "inputs": [
        {
          "indexed": false,
          "name": "producer",
          "type": "address"
        }
      ],
      "name": "AddEnergyProducer",
      "type": "event",
      "signature": "0x979cb632696187a0abbb9199b3f2ea77c4b9c016f40a257314547e7a3e48c8f2"
    },
    {
      "constant": false,
      "inputs": [
        {
          "name": "fond",
          "type": "address"
        }
      ],
      "name": "setFondContract",
      "outputs": [],
      "payable": false,
      "stateMutability": "nonpayable",
      "type": "function",
      "signature": "0x696b422f"
    },
    {
      "constant": false,
      "inputs": [
        {
          "name": "mmeToken",
          "type": "address"
        }
      ],
      "name": "setMMETokenContract",
      "outputs": [],
      "payable": false,
      "stateMutability": "nonpayable",
      "type": "function",
      "signature": "0x9ddb03ba"
    },
    {
      "constant": false,
      "inputs": [
        {
          "name": "producer",
          "type": "address"
        }
      ],
      "name": "addEnergyProducer",
      "outputs": [],
      "payable": false,
      "stateMutability": "nonpayable",
      "type": "function",
      "signature": "0xd87ffdfc"
    },
    {
      "constant": false,
      "inputs": [
        {
          "name": "customer",
          "type": "address"
        },
        {
          "name": "amount",
          "type": "uint256"
        }
      ],
      "name": "createBill",
      "outputs": [],
      "payable": false,
      "stateMutability": "nonpayable",
      "type": "function",
      "signature": "0xa726a2e6"
    },
    {
      "constant": true,
      "inputs": [
        {
          "name": "customer",
          "type": "address"
        }
      ],
      "name": "hasBill",
      "outputs": [
        {
          "name": "",
          "type": "bool"
        }
      ],
      "payable": false,
      "stateMutability": "view",
      "type": "function",
      "signature": "0x578b15ec"
    },
    {
      "constant": true,
      "inputs": [],
      "name": "getInvoiceAmount",
      "outputs": [
        {
          "name": "",
          "type": "uint256"
        }
      ],
      "payable": false,
      "stateMutability": "view",
      "type": "function",
      "signature": "0x8a7566b5"
    },
    {
      "constant": false,
      "inputs": [
        {
          "name": "toFond",
          "type": "uint256"
        }
      ],
      "name": "payBill",
      "outputs": [],
      "payable": true,
      "stateMutability": "payable",
      "type": "function",
      "signature": "0xf0975190"
    }
  ],
  "bytecode": "0x608060405234801561001057600080fd5b50336000806101000a81548173ffffffffffffffffffffffffffffffffffffffff021916908373ffffffffffffffffffffffffffffffffffffffff160217905550610c5a806100606000396000f3fe60806040526004361061008e576000357c0100000000000000000000000000000000000000000000000000000000900463ffffffff168063578b15ec14610093578063696b422f146100fc5780638a7566b51461014d5780639ddb03ba14610178578063a726a2e6146101c9578063b2bdfa7b14610224578063d87ffdfc1461027b578063f0975190146102cc575b600080fd5b34801561009f57600080fd5b506100e2600480360360208110156100b657600080fd5b81019080803573ffffffffffffffffffffffffffffffffffffffff1690602001909291905050506102fa565b604051808215151515815260200191505060405180910390f35b34801561010857600080fd5b5061014b6004803603602081101561011f57600080fd5b81019080803573ffffffffffffffffffffffffffffffffffffffff169060200190929190505050610348565b005b34801561015957600080fd5b5061016261038c565b6040518082815260200191505060405180910390f35b34801561018457600080fd5b506101c76004803603602081101561019b57600080fd5b81019080803573ffffffffffffffffffffffffffffffffffffffff1690602001909291905050506104b5565b005b3480156101d557600080fd5b50610222600480360360408110156101ec57600080fd5b81019080803573ffffffffffffffffffffffffffffffffffffffff169060200190929190803590602001909291905050506104f9565b005b34801561023057600080fd5b50610239610664565b604051808273ffffffffffffffffffffffffffffffffffffffff1673ffffffffffffffffffffffffffffffffffffffff16815260200191505060405180910390f35b34801561028757600080fd5b506102ca6004803603602081101561029e57600080fd5b81019080803573ffffffffffffffffffffffffffffffffffffffff169060200190929190505050610689565b005b6102f8600480360360208110156102e257600080fd5b81019080803590602001909291905050506107a2565b005b600080600460008473ffffffffffffffffffffffffffffffffffffffff1673ffffffffffffffffffffffffffffffffffffffff16815260200190815260200160002060010154119050919050565b80600160006101000a81548173ffffffffffffffffffffffffffffffffffffffff021916908373ffffffffffffffffffffffffffffffffffffffff16021790555050565b60003073ffffffffffffffffffffffffffffffffffffffff1663578b15ec336040518263ffffffff167c0100000000000000000000000000000000000000000000000000000000028152600401808273ffffffffffffffffffffffffffffffffffffffff1673ffffffffffffffffffffffffffffffffffffffff16815260200191505060206040518083038186803b15801561042757600080fd5b505afa15801561043b573d6000803e3d6000fd5b505050506040513d602081101561045157600080fd5b8101908080519060200190929190505050151561046d57600080fd5b600460003373ffffffffffffffffffffffffffffffffffffffff1673ffffffffffffffffffffffffffffffffffffffff16815260200190815260200160002060010154905090565b80600260006101000a81548173ffffffffffffffffffffffffffffffffffffffff021916908373ffffffffffffffffffffffffffffffffffffffff16021790555050565b600360003373ffffffffffffffffffffffffffffffffffffffff1673ffffffffffffffffffffffffffffffffffffffff16815260200190815260200160002060009054906101000a900460ff16151561055157600080fd5b6000600460008473ffffffffffffffffffffffffffffffffffffffff1673ffffffffffffffffffffffffffffffffffffffff168152602001908152602001600020600101541415156105a257600080fd5b60408051908101604052803373ffffffffffffffffffffffffffffffffffffffff16815260200182815250600460008473ffffffffffffffffffffffffffffffffffffffff1673ffffffffffffffffffffffffffffffffffffffff16815260200190815260200160002060008201518160000160006101000a81548173ffffffffffffffffffffffffffffffffffffffff021916908373ffffffffffffffffffffffffffffffffffffffff160217905550602082015181600101559050505050565b6000809054906101000a900473ffffffffffffffffffffffffffffffffffffffff1681565b6000809054906101000a900473ffffffffffffffffffffffffffffffffffffffff1673ffffffffffffffffffffffffffffffffffffffff163373ffffffffffffffffffffffffffffffffffffffff161415156106e457600080fd5b6001600360008373ffffffffffffffffffffffffffffffffffffffff1673ffffffffffffffffffffffffffffffffffffffff16815260200190815260200160002060006101000a81548160ff0219169083151502179055507f979cb632696187a0abbb9199b3f2ea77c4b9c016f40a257314547e7a3e48c8f281604051808273ffffffffffffffffffffffffffffffffffffffff1673ffffffffffffffffffffffffffffffffffffffff16815260200191505060405180910390a150565b3073ffffffffffffffffffffffffffffffffffffffff1663578b15ec336040518263ffffffff167c0100000000000000000000000000000000000000000000000000000000028152600401808273ffffffffffffffffffffffffffffffffffffffff1673ffffffffffffffffffffffffffffffffffffffff16815260200191505060206040518083038186803b15801561083b57600080fd5b505afa15801561084f573d6000803e3d6000fd5b505050506040513d602081101561086557600080fd5b8101908080519060200190929190505050151561088157600080fd5b6000600260009054906101000a900473ffffffffffffffffffffffffffffffffffffffff1673ffffffffffffffffffffffffffffffffffffffff166370a08231336040518263ffffffff167c0100000000000000000000000000000000000000000000000000000000028152600401808273ffffffffffffffffffffffffffffffffffffffff1673ffffffffffffffffffffffffffffffffffffffff16815260200191505060206040518083038186803b15801561093e57600080fd5b505afa158015610952573d6000803e3d6000fd5b505050506040513d602081101561096857600080fd5b8101908080519060200190929190505050905080821115151561098a57600080fd5b600460003373ffffffffffffffffffffffffffffffffffffffff1673ffffffffffffffffffffffffffffffffffffffff16815260200190815260200160002060010154823401111515156109dd57600080fd5b818103600460003373ffffffffffffffffffffffffffffffffffffffff1673ffffffffffffffffffffffffffffffffffffffff16815260200190815260200160002060010160008282540392505081905550600260009054906101000a900473ffffffffffffffffffffffffffffffffffffffff1673ffffffffffffffffffffffffffffffffffffffff16639c48c535336040518263ffffffff167c0100000000000000000000000000000000000000000000000000000000028152600401808273ffffffffffffffffffffffffffffffffffffffff1673ffffffffffffffffffffffffffffffffffffffff168152602001915050600060405180830381600087803b158015610aec57600080fd5b505af1158015610b00573d6000803e3d6000fd5b5050505034600460003373ffffffffffffffffffffffffffffffffffffffff1673ffffffffffffffffffffffffffffffffffffffff16815260200190815260200160002060010160008282540392505081905550600160009054906101000a900473ffffffffffffffffffffffffffffffffffffffff1673ffffffffffffffffffffffffffffffffffffffff166303f9c79383336040518363ffffffff167c0100000000000000000000000000000000000000000000000000000000028152600401808273ffffffffffffffffffffffffffffffffffffffff1673ffffffffffffffffffffffffffffffffffffffff1681526020019150506000604051808303818588803b158015610c1157600080fd5b505af1158015610c25573d6000803e3d6000fd5b5050505050505056fea165627a7a723058209eb9d8f37fa7299cc979f08c866ea0895824ceae01ff7f8f87b9e19a36ab04090029",
  "source": "pragma solidity >=0.4.0 <0.6.0;\n\nimport \"./MMEToken.sol\";\nimport \"./Fond.sol\";\n\ncontract Bill {\n\n  event AddEnergyProducer(address producer);\n\n  // Contract owner who can add new energy provider\n  address public _owner;\n  Fond private _fondContract;\n  MMEToken private _tokenContract;\n\n  struct Invoice {\n    address issuer;\n    uint amount;\n  }\n\n  mapping(address => bool) trustedProducers;\n  mapping(address => Invoice) openBills;\n\n  constructor() public {\n    _owner = msg.sender;\n  }\n\n  function setFondContract(address fond) public {\n    _fondContract = Fond(fond);\n  }\n\n  function setMMETokenContract(address mmeToken) public {\n    _tokenContract = MMEToken(mmeToken);\n  }\n\n  function addEnergyProducer(address producer) public {\n    require(msg.sender == _owner);\n    trustedProducers[producer] = true;\n    emit AddEnergyProducer(producer);\n  }\n\n  function createBill(address customer, uint amount) public {\n    require(trustedProducers[msg.sender]);\n    // Check for existing bill\n    require(openBills[customer].amount == 0);\n    // build struct\n    openBills[customer] = Invoice(msg.sender, amount);\n  }\n\n  function hasBill(address customer) public view returns (bool) {\n    return (openBills[customer].amount > 0);\n  }\n\n  function getInvoiceAmount() public view returns (uint) {\n    require(this.hasBill(msg.sender));\n    return openBills[msg.sender].amount;\n  }\n\n  function payBill(uint toFond) public payable {\n    // Check for open bill\n    require(this.hasBill(msg.sender));\n\n    uint tokenAmount = _tokenContract.balanceOf(msg.sender);\n\n    // Check for sufficant tokens\n    require(toFond <= tokenAmount);\n\n    // Check for sufficant ehter\n    require(msg.value+toFond <= openBills[msg.sender].amount);\n\n    // Reduce bill with tokens\n    openBills[msg.sender].amount -= tokenAmount-toFond;\n    _tokenContract.useToken(msg.sender);\n\n    // Pay ether to issuer\n    //openBills[msg.sender].issuer.transfer(openBills[msg.sender].amount);\n    openBills[msg.sender].amount -= msg.value;\n\n    // Pay ether to fond\n    _fondContract.invest.value(toFond)(msg.sender);\n  }\n\n}\n",
  "sourcePath": "/home/matthias/Documents/BETH/MinusMinusEnergy/src/smartcontracts/contracts/Bill.sol",
  "compiler": {
    "name": "solc",
    "version": "0.5.0+commit.1d4f565a.Emscripten.clang"
  },
  "schemaVersion": "3.0.1",
  "updatedAt": "2019-02-14T14:25:03.752Z",
  "devdoc": {
    "methods": {}
  },
  "userdoc": {
    "methods": {}
  }
}